{
  "contractName": "FixidityLib",
  "abi": [
    {
      "constant": false,
      "inputs": [
        {
          "name": "fixidity",
          "type": "FixidityLib.Fixidity storage"
        },
        {
          "name": "digits",
          "type": "uint8"
        }
      ],
      "name": "init",
      "outputs": [],
      "payable": false,
      "stateMutability": "nonpayable",
      "type": "function"
    },
    {
      "constant": true,
      "inputs": [
        {
          "name": "fixidity",
          "type": "FixidityLib.Fixidity storage"
        },
        {
          "name": "a",
          "type": "int256"
        },
        {
          "name": "b",
          "type": "int256"
        }
      ],
      "name": "safe_multiply",
      "outputs": [
        {
          "name": "",
          "type": "int256"
        }
      ],
      "payable": false,
      "stateMutability": "view",
      "type": "function"
    },
    {
      "constant": true,
      "inputs": [
        {
          "name": "fixidity",
          "type": "FixidityLib.Fixidity storage"
        },
        {
          "name": "a",
          "type": "int256"
        },
        {
          "name": "b",
          "type": "int256"
        }
      ],
      "name": "divide_and_round",
      "outputs": [
        {
          "name": "",
          "type": "int256"
        }
      ],
      "payable": false,
      "stateMutability": "view",
      "type": "function"
    },
    {
      "constant": true,
      "inputs": [
        {
          "name": "fixidity",
          "type": "FixidityLib.Fixidity storage"
        },
        {
          "name": "a",
          "type": "int256"
        },
        {
          "name": "b",
          "type": "int256"
        }
      ],
      "name": "safe_add",
      "outputs": [
        {
          "name": "",
          "type": "int256"
        }
      ],
      "payable": false,
      "stateMutability": "view",
      "type": "function"
    },
    {
      "constant": true,
      "inputs": [
        {
          "name": "fixidity",
          "type": "FixidityLib.Fixidity storage"
        },
        {
          "name": "a",
          "type": "int256"
        },
        {
          "name": "b",
          "type": "int256"
        }
      ],
      "name": "safe_sub",
      "outputs": [
        {
          "name": "",
          "type": "int256"
        }
      ],
      "payable": false,
      "stateMutability": "view",
      "type": "function"
    },
    {
      "constant": true,
      "inputs": [
        {
          "name": "fixidity",
          "type": "FixidityLib.Fixidity storage"
        },
        {
          "name": "a",
          "type": "int256"
        }
      ],
      "name": "reciprocal",
      "outputs": [
        {
          "name": "",
          "type": "int256"
        }
      ],
      "payable": false,
      "stateMutability": "view",
      "type": "function"
    }
  ],
  "bytecode": "0x6104ac610030600b82828239805160001a6073146000811461002057610022565bfe5b5030600052607381538281f300730000000000000000000000000000000000000000301460806040526004361061008f576000357c0100000000000000000000000000000000000000000000000000000000900463ffffffff1680634f14840e146100945780634fd574b4146100dc57806373cf14bd146101245780637b0cc5761461015e578063abcc14421461019c578063cfa6e2de146101e4575b600080fd5b6100c660048036038101908080359060200190929190803590602001909291908035906020019092919050505061022c565b6040518082815260200191505060405180910390f35b61010e60048036038101908080359060200190929190803590602001909291908035906020019092919050505061024c565b6040518082815260200191505060405180910390f35b81801561013057600080fd5b5061015c60048036038101908080359060200190929190803560ff16906020019092919050505061026c565b005b6101866004803603810190808035906020019092919080359060200190929190505050610367565b6040518082815260200191505060405180910390f35b6101ce600480360381019080803590602001909291908035906020019092919080359060200190929190505050610380565b6040518082815260200191505060405180910390f35b6102166004803603810190808035906020019092919080359060200190929190803590602001909291905050506103d0565b6040518082815260200191505060405180910390f35b60008082840190508284820314151561024157fe5b809150509392505050565b60008082840390508284820114151561026157fe5b809150509392505050565b600060248260ff1610151561027d57fe5b818360000160006101000a81548160ff021916908360ff1602179055508160ff16600a0a83600101819055508160240360ff16600a0a90506102d0836f01bb7635c5de48ef4ce5b7b41cc43db0836103d0565b83600201819055506102f2836e857ecb659cfac9833d01f5abb9b238836103d0565b8360030181905550610314836e4e16f927cdca7f15b39123f740f5d1836103d0565b8360040181905550610337836f020b85a438b48462e4212f98f0ebc9e2836103d0565b836005018190555061035a836f025d0c79fe247f31777d922627a74624836103d0565b8360060181905550505050565b6000610378838460010154846103d0565b905092915050565b6000806001831415610394578391506103c8565b84600101548385028115156103a557fe5b0590508284828760010154028115156103ba57fe5b051415156103c457fe5b8091505b509392505050565b60008060018314156103e457839150610478565b600083141515156103f157fe5b6104038585600a886001015402610380565b9350828481151561041057fe5b059350600a8481151561041f57fe5b07905060008312151561044c5760058112151561044757610444858583600a0361022c565b93505b610468565b60058113151561046757610464858583600a0161024c565b93505b5b600a8481151561047457fe5b0591505b5093925050505600a165627a7a7230582073d25c938a401f21f5d484ddd3f177057a1e44f5ae052daeb13896ced717ec3a0029",
  "source": "pragma solidity ^0.4.24;\n//pragma experimental ABIEncoderV2;\n\nlibrary FixidityLib {\n\n    uint8 constant initial_digits = 36;\n    int256 constant fixed_log_e_10 =     2302585092994045684017991454684364208;\n    int256 constant fixed_log_e_2 =       693147180559945309417232121458176568;\n    int256 constant fixed_log_e_1_5 =     405465108108164381978013115464349137;\n    int256 constant fixed_log_2_1_5 =     584962500721156181453738943947816509;\n    int256 constant fixed_log_10_5 =      698970004336018804786261105275506973;\n    int256 constant fixed_e =            2718281828459045235360287471352662498;\n    int256 constant fixed_pi =           3141592653589793238462643383279502884;\n\n\tstruct Fixidity {\n\t\tuint8 digits;\n\t\tint256 fixed_1;\n\t\tint256 fixed_log_e_10;\n\t\tint256 fixed_log_e_2;\n\t\tint256 fixed_log_e_1_5;\n\t\tint256 fixed_e;\n        int256 fixed_pi;\n\t}\n\n    function init(Fixidity storage fixidity, uint8 digits) public {\n        assert(digits < 36);\n        fixidity.digits = digits;\n        fixidity.fixed_1 = int256(uint256(10) ** uint256(digits));\n        int256 t = int256(uint256(10) ** uint256(initial_digits - digits));\n        fixidity.fixed_log_e_10 = divide_and_round(fixidity, fixed_log_e_10, t);\n        fixidity.fixed_log_e_2 = divide_and_round(fixidity, fixed_log_e_2, t);\n        fixidity.fixed_log_e_1_5 = divide_and_round(fixidity, fixed_log_e_1_5, t);\n        fixidity.fixed_e = divide_and_round(fixidity, fixed_e, t);\n        fixidity.fixed_pi = divide_and_round(fixidity, fixed_pi, t);            \n    }\n\n    function safe_multiply(Fixidity storage fixidity, int256 a, int256 b) public view returns (int256) {\n        if(b == 1) return a;\n        int256 t = a * b / fixidity.fixed_1;\n        assert(fixidity.fixed_1 * t / a == b);\n        return t;\n    }\n\n    function divide_and_round(Fixidity storage fixidity, int256 a, int256 b) public view returns (int256) {\n        if(b == 1) return a;\n        assert(b != 0);\n        a = safe_multiply(fixidity, a, fixidity.fixed_1 * 10);\n        a = a / b;\n        int256 t = a % 10;\n        if(b >= 0) {\n            if(t >= 5) {\n                a = safe_add(fixidity, a, 10 - t);\n            }\n        } else {\n            if(t <= 5) {\n                a = safe_sub(fixidity, a, 10 + t);\n            }\n        }\n        return a / 10;\n    }\n\n    function safe_add(Fixidity storage fixidity, int256 a, int256 b) public view returns (int256) {\n    \tint256 t = a + b;\n    \tassert(t - a == b);\n    \treturn t;\n    }\n\n    function safe_sub(Fixidity storage fixidity, int256 a, int256 b) public view returns (int256) {\n    \tint256 t = a - b;\n    \tassert(t + a == b);\n    \treturn t;\n    }\n\n    function reciprocal(Fixidity storage fixidity, int256 a) public view returns (int256) {\n        return divide_and_round(fixidity, fixidity.fixed_1, a);\n    }\n}\n",
  "sourcePath": "/Users/gadiguy/workspace/fixidity/contracts/FixidityLib.sol",
  "compiler": {
    "name": "solc",
    "version": "0.4.24+commit.e67f0147.Emscripten.clang"
  },
  "schemaVersion": "2.0.1",
  "updatedAt": "2018-07-30T14:48:37.683Z"
}