{
  "contractName": "LogarithmLib",
  "abi": [
    {
      "constant": true,
      "inputs": [
        {
          "name": "fixidity",
          "type": "FixidityLib.Fixidity storage"
        },
        {
          "name": "v",
          "type": "int256"
        }
      ],
      "name": "log_e",
      "outputs": [
        {
          "name": "",
          "type": "int256"
        }
      ],
      "payable": false,
      "stateMutability": "view",
      "type": "function"
    },
    {
      "constant": true,
      "inputs": [
        {
          "name": "fixidity",
          "type": "FixidityLib.Fixidity storage"
        },
        {
          "name": "base",
          "type": "int256"
        },
        {
          "name": "v",
          "type": "int256"
        }
      ],
      "name": "log_base",
      "outputs": [
        {
          "name": "",
          "type": "int256"
        }
      ],
      "payable": false,
      "stateMutability": "view",
      "type": "function"
    }
  ],
  "bytecode": "0x6106b9610030600b82828239805160001a6073146000811461002057610022565bfe5b5030600052607381538281f3007300000000000000000000000000000000000000003014608060405260043610610063576000357c0100000000000000000000000000000000000000000000000000000000900463ffffffff1680630f7c99fe146100685780638a9fdb94146100a6575b600080fd5b61009060048036038101908080359060200190929190803590602001909291905050506100ee565b6040518082815260200191505060405180910390f35b6100d8600480360381019080803590602001909291908035906020019092919080359060200190929190505050610659565b6040518082815260200191505060405180910390f35b6000806000806000808613151561010157fe5b600093505b86600101548612156101de578673__FixidityLib___________________________63abcc14429091888a600501546040518463ffffffff167c010000000000000000000000000000000000000000000000000000000002815260040180848152602001838152602001828152602001935050505060206040518083038186803b15801561019357600080fd5b505af41580156101a7573d6000803e3d6000fd5b505050506040513d60208110156101bd57600080fd5b81019080805190602001909291905050509550838060019003945050610106565b5b86600501548613156102b6578673__FixidityLib___________________________63cfa6e2de9091888a600501546040518463ffffffff167c010000000000000000000000000000000000000000000000000000000002815260040180848152602001838152602001828152602001935050505060206040518083038186803b15801561026c57600080fd5b505af4158015610280573d6000803e3d6000fd5b505050506040513d602081101561029657600080fd5b8101908080519060200190929190505050955083806001019450506101df565b86600101548614156102ca5783945061064f565b86600101546002028614156102e75786600301548401945061064f565b600287600101546003028115156102fa57fe5b05860395508660040154840193508673__FixidityLib___________________________63cfa6e2de9091888a60010154028a600101546003028a016040518463ffffffff167c010000000000000000000000000000000000000000000000000000000002815260040180848152602001838152602001828152602001935050505060206040518083038186803b15801561039457600080fd5b505af41580156103a8573d6000803e3d6000fd5b505050506040513d60208110156103be57600080fd5b8101908080519060200190929190505050925082600202840193508673__FixidityLib___________________________63abcc1442909185866040518463ffffffff167c010000000000000000000000000000000000000000000000000000000002815260040180848152602001838152602001828152602001935050505060206040518083038186803b15801561045657600080fd5b505af415801561046a573d6000803e3d6000fd5b505050506040513d602081101561048057600080fd5b81019080805190602001909291905050509150600390505b60038760000160009054906101000a900460ff166002020160ff168160ff1611151561064b578673__FixidityLib___________________________63abcc1442909185856040518463ffffffff167c010000000000000000000000000000000000000000000000000000000002815260040180848152602001838152602001828152602001935050505060206040518083038186803b15801561053b57600080fd5b505af415801561054f573d6000803e3d6000fd5b505050506040513d602081101561056557600080fd5b810190808051906020019092919050505092508673__FixidityLib___________________________63cfa6e2de9091856002028460ff168b60010154026040518463ffffffff167c010000000000000000000000000000000000000000000000000000000002815260040180848152602001838152602001828152602001935050505060206040518083038186803b15801561060157600080fd5b505af4158015610615573d6000803e3d6000fd5b505050506040513d602081101561062b57600080fd5b810190808051906020019092919050505084019350600281019050610498565b8394505b5050505092915050565b6000808313151561066657fe5b61067084846100ee565b61067a85846100ee565b81151561068357fe5b05905093925050505600a165627a7a723058209038fe21ebd5d01f6928e48d7b7fcc2fb939e1de0364fbd9f1189efb77da44d30029",
  "source": "pragma solidity ^0.4.24;\n\nimport \"./FixidityLib.sol\";\n\nlibrary LogarithmLib {\n\n    using FixidityLib for FixidityLib.Fixidity;\n\n    function log_e(FixidityLib.Fixidity storage fixidity, int256 v) public view returns (int256) {\n        assert(v > 0);\n        int256 r = 0;\n\n        while(v < fixidity.fixed_1) {\n            v = fixidity.safe_multiply(v, fixidity.fixed_e);\n            r--;\n        }\n        while(v > fixidity.fixed_e) {\n            v = fixidity.divide_and_round(v, fixidity.fixed_e);\n            r++;\n        }\n\n        if(v == fixidity.fixed_1) return r;\n        if(v == 2 * fixidity.fixed_1) return r + fixidity.fixed_log_e_2;\n\n        v = v - 3 * fixidity.fixed_1 / 2;\n        r = r + fixidity.fixed_log_e_1_5;\n\n        int256 m = fixidity.divide_and_round(fixidity.fixed_1 * v, v + 3 * fixidity.fixed_1);\n        r += 2 * m;\n        int256 m_2 = fixidity.safe_multiply(m, m);\n        for(uint8 i = 3; i <= 2 * fixidity.digits + 3; i += 2) {\n            m = fixidity.safe_multiply(m, m_2);\n            r += fixidity.divide_and_round(2 * m, fixidity.fixed_1 * i);\n        }\n\n        return r;\n    }\n\n    function log_base(FixidityLib.Fixidity storage fixidity, int256 base, int256 v) public view returns (int256) {\n        assert(base > 0);\n        return log_e(fixidity, v) / log_e(fixidity, int256(base));\n    }\n}\n",
  "sourcePath": "/Users/gadiguy/workspace/fixidity/contracts/LogarithmLib.sol",
  "compiler": {
    "name": "solc",
    "version": "0.4.24+commit.e67f0147.Emscripten.clang"
  },
  "schemaVersion": "2.0.1",
  "updatedAt": "2018-07-30T14:48:37.698Z"
}